{
  "contractName": "Payroll",
  "abi": [
    {
      "constant": false,
      "inputs": [],
      "name": "getBalance",
      "outputs": [
        {
          "name": "",
          "type": "uint256"
        }
      ],
      "payable": false,
      "stateMutability": "nonpayable",
      "type": "function"
    },
    {
      "constant": false,
      "inputs": [],
      "name": "hasEnoughFund",
      "outputs": [
        {
          "name": "",
          "type": "bool"
        }
      ],
      "payable": false,
      "stateMutability": "nonpayable",
      "type": "function"
    },
    {
      "constant": false,
      "inputs": [],
      "name": "calculateRunway",
      "outputs": [
        {
          "name": "",
          "type": "uint256"
        }
      ],
      "payable": false,
      "stateMutability": "nonpayable",
      "type": "function"
    },
    {
      "constant": false,
      "inputs": [
        {
          "name": "employeeId",
          "type": "address"
        },
        {
          "name": "salary",
          "type": "uint256"
        }
      ],
      "name": "updateEmployee",
      "outputs": [],
      "payable": false,
      "stateMutability": "nonpayable",
      "type": "function"
    },
    {
      "constant": false,
      "inputs": [
        {
          "name": "newAddress",
          "type": "address"
        }
      ],
      "name": "changePaymentAddress",
      "outputs": [],
      "payable": false,
      "stateMutability": "nonpayable",
      "type": "function"
    },
    {
      "constant": true,
      "inputs": [],
      "name": "owner",
      "outputs": [
        {
          "name": "",
          "type": "address"
        }
      ],
      "payable": false,
      "stateMutability": "view",
      "type": "function"
    },
    {
      "constant": false,
      "inputs": [],
      "name": "addFund",
      "outputs": [
        {
          "name": "",
          "type": "uint256"
        }
      ],
      "payable": true,
      "stateMutability": "payable",
      "type": "function"
    },
    {
      "constant": false,
      "inputs": [],
      "name": "getPaid",
      "outputs": [],
      "payable": false,
      "stateMutability": "nonpayable",
      "type": "function"
    },
    {
      "constant": true,
      "inputs": [
        {
          "name": "",
          "type": "address"
        }
      ],
      "name": "employees",
      "outputs": [
        {
          "name": "id",
          "type": "address"
        },
        {
          "name": "salary",
          "type": "uint256"
        },
        {
          "name": "lastPayday",
          "type": "uint256"
        }
      ],
      "payable": false,
      "stateMutability": "view",
      "type": "function"
    },
    {
      "constant": false,
      "inputs": [
        {
          "name": "employeeId",
          "type": "address"
        }
      ],
      "name": "removeEmployee",
      "outputs": [],
      "payable": false,
      "stateMutability": "nonpayable",
      "type": "function"
    },
    {
      "constant": false,
      "inputs": [
        {
          "name": "employeeId",
          "type": "address"
        },
        {
          "name": "salary",
          "type": "uint256"
        }
      ],
      "name": "addEmployee",
      "outputs": [],
      "payable": false,
      "stateMutability": "nonpayable",
      "type": "function"
    },
    {
      "constant": false,
      "inputs": [
        {
          "name": "newOwner",
          "type": "address"
        }
      ],
      "name": "transferOwnership",
      "outputs": [],
      "payable": false,
      "stateMutability": "nonpayable",
      "type": "function"
    },
    {
      "anonymous": false,
      "inputs": [
        {
          "indexed": true,
          "name": "previousOwner",
          "type": "address"
        },
        {
          "indexed": true,
          "name": "newOwner",
          "type": "address"
        }
      ],
      "name": "OwnershipTransferred",
      "type": "event"
    }
  ],
  "bytecode": "0x60606040526000600255336000806101000a81548173ffffffffffffffffffffffffffffffffffffffff021916908373ffffffffffffffffffffffffffffffffffffffff16021790555061116e806100586000396000f3006060604052600436106100ba576000357c0100000000000000000000000000000000000000000000000000000000900463ffffffff16806312065fe0146100bf57806323fed09e146100e85780634ec19512146101155780635e91d8ec1461013e5780637124d613146101805780638da5cb5b146101b9578063a2f09dfa1461020e578063cf41d6f81461022c578063d067894714610241578063d108177a146102c8578063e7fd9a1314610301578063f2fde38b14610343575b600080fd5b34156100ca57600080fd5b6100d261037c565b6040518082815260200191505060405180910390f35b34156100f357600080fd5b6100fb61039b565b604051808215151515815260200191505060405180910390f35b341561012057600080fd5b6101286103ac565b6040518082815260200191505060405180910390f35b341561014957600080fd5b61017e600480803573ffffffffffffffffffffffffffffffffffffffff169060200190919080359060200190919050506103d8565b005b341561018b57600080fd5b6101b7600480803573ffffffffffffffffffffffffffffffffffffffff1690602001909190505061069d565b005b34156101c457600080fd5b6101cc6108c1565b604051808273ffffffffffffffffffffffffffffffffffffffff1673ffffffffffffffffffffffffffffffffffffffff16815260200191505060405180910390f35b6102166108e6565b6040518082815260200191505060405180910390f35b341561023757600080fd5b61023f610905565b005b341561024c57600080fd5b610278600480803573ffffffffffffffffffffffffffffffffffffffff16906020019091905050610a70565b604051808473ffffffffffffffffffffffffffffffffffffffff1673ffffffffffffffffffffffffffffffffffffffff168152602001838152602001828152602001935050505060405180910390f35b34156102d357600080fd5b6102ff600480803573ffffffffffffffffffffffffffffffffffffffff16906020019091905050610aba565b005b341561030c57600080fd5b610341600480803573ffffffffffffffffffffffffffffffffffffffff16906020019091908035906020019091905050610d00565b005b341561034e57600080fd5b61037a600480803573ffffffffffffffffffffffffffffffffffffffff16906020019091905050610edc565b005b60003073ffffffffffffffffffffffffffffffffffffffff1631905090565b6000806103a66103ac565b11905090565b60006002543073ffffffffffffffffffffffffffffffffffffffff16318115156103d257fe5b04905090565b60008060009054906101000a900473ffffffffffffffffffffffffffffffffffffffff1673ffffffffffffffffffffffffffffffffffffffff163373ffffffffffffffffffffffffffffffffffffffff1614151561043557600080fd5b826000600160008373ffffffffffffffffffffffffffffffffffffffff1673ffffffffffffffffffffffffffffffffffffffff168152602001908152602001600020905060008160000160009054906101000a900473ffffffffffffffffffffffffffffffffffffffff1673ffffffffffffffffffffffffffffffffffffffff16141515156104c057fe5b600160008673ffffffffffffffffffffffffffffffffffffffff1673ffffffffffffffffffffffffffffffffffffffff168152602001908152602001600020925060008360000160009054906101000a900473ffffffffffffffffffffffffffffffffffffffff1673ffffffffffffffffffffffffffffffffffffffff161415151561054857fe5b6105c783606060405190810160405290816000820160009054906101000a900473ffffffffffffffffffffffffffffffffffffffff1673ffffffffffffffffffffffffffffffffffffffff1673ffffffffffffffffffffffffffffffffffffffff16815260200160018201548152602001600282015481525050611031565b6060604051908101604052808673ffffffffffffffffffffffffffffffffffffffff16815260200185815260200142815250600160008773ffffffffffffffffffffffffffffffffffffffff1673ffffffffffffffffffffffffffffffffffffffff16815260200190815260200160002060008201518160000160006101000a81548173ffffffffffffffffffffffffffffffffffffffff021916908373ffffffffffffffffffffffffffffffffffffffff16021790555060208201518160010155604082015181600201559050505050505050565b6000336000600160008373ffffffffffffffffffffffffffffffffffffffff1673ffffffffffffffffffffffffffffffffffffffff168152602001908152602001600020905060008160000160009054906101000a900473ffffffffffffffffffffffffffffffffffffffff1673ffffffffffffffffffffffffffffffffffffffff161415151561072a57fe5b600160003373ffffffffffffffffffffffffffffffffffffffff1673ffffffffffffffffffffffffffffffffffffffff16815260200190815260200160002092506060604051908101604052808573ffffffffffffffffffffffffffffffffffffffff168152602001846001015481526020018460020154815250600160008673ffffffffffffffffffffffffffffffffffffffff1673ffffffffffffffffffffffffffffffffffffffff16815260200190815260200160002060008201518160000160006101000a81548173ffffffffffffffffffffffffffffffffffffffff021916908373ffffffffffffffffffffffffffffffffffffffff1602179055506020820151816001015560408201518160020155905050600160003373ffffffffffffffffffffffffffffffffffffffff1673ffffffffffffffffffffffffffffffffffffffff168152602001908152602001600020600080820160006101000a81549073ffffffffffffffffffffffffffffffffffffffff021916905560018201600090556002820160009055505050505050565b6000809054906101000a900473ffffffffffffffffffffffffffffffffffffffff1681565b60003073ffffffffffffffffffffffffffffffffffffffff1631905090565b600080336000600160008373ffffffffffffffffffffffffffffffffffffffff1673ffffffffffffffffffffffffffffffffffffffff168152602001908152602001600020905060008160000160009054906101000a900473ffffffffffffffffffffffffffffffffffffffff1673ffffffffffffffffffffffffffffffffffffffff161415151561099357fe5b600160003373ffffffffffffffffffffffffffffffffffffffff1673ffffffffffffffffffffffffffffffffffffffff16815260200190815260200160002093506109ec600a85600201546110bd90919063ffffffff16565b925042831015156109f957fe5b8284600201819055508360000160009054906101000a900473ffffffffffffffffffffffffffffffffffffffff1673ffffffffffffffffffffffffffffffffffffffff166108fc85600101549081150290604051600060405180830381858888f193505050501515610a6a57600080fd5b50505050565b60016020528060005260406000206000915090508060000160009054906101000a900473ffffffffffffffffffffffffffffffffffffffff16908060010154908060020154905083565b60008060009054906101000a900473ffffffffffffffffffffffffffffffffffffffff1673ffffffffffffffffffffffffffffffffffffffff163373ffffffffffffffffffffffffffffffffffffffff16141515610b1757600080fd5b816000600160008373ffffffffffffffffffffffffffffffffffffffff1673ffffffffffffffffffffffffffffffffffffffff168152602001908152602001600020905060008160000160009054906101000a900473ffffffffffffffffffffffffffffffffffffffff1673ffffffffffffffffffffffffffffffffffffffff1614151515610ba257fe5b600160008573ffffffffffffffffffffffffffffffffffffffff1673ffffffffffffffffffffffffffffffffffffffff1681526020019081526020016000209250610c6283606060405190810160405290816000820160009054906101000a900473ffffffffffffffffffffffffffffffffffffffff1673ffffffffffffffffffffffffffffffffffffffff1673ffffffffffffffffffffffffffffffffffffffff16815260200160018201548152602001600282015481525050611031565b610c7b83600101546002546110db90919063ffffffff16565b600281905550600160008573ffffffffffffffffffffffffffffffffffffffff1673ffffffffffffffffffffffffffffffffffffffff168152602001908152602001600020600080820160006101000a81549073ffffffffffffffffffffffffffffffffffffffff021916905560018201600090556002820160009055505050505050565b60008060009054906101000a900473ffffffffffffffffffffffffffffffffffffffff1673ffffffffffffffffffffffffffffffffffffffff163373ffffffffffffffffffffffffffffffffffffffff16141515610d5d57600080fd5b600160008473ffffffffffffffffffffffffffffffffffffffff1673ffffffffffffffffffffffffffffffffffffffff168152602001908152602001600020905060008160000160009054906101000a900473ffffffffffffffffffffffffffffffffffffffff1673ffffffffffffffffffffffffffffffffffffffff16141515610de457fe5b6060604051908101604052808473ffffffffffffffffffffffffffffffffffffffff168152602001670de0b6b3a76400008402815260200142815250600160008573ffffffffffffffffffffffffffffffffffffffff1673ffffffffffffffffffffffffffffffffffffffff16815260200190815260200160002060008201518160000160006101000a81548173ffffffffffffffffffffffffffffffffffffffff021916908373ffffffffffffffffffffffffffffffffffffffff1602179055506020820151816001015560408201518160020155905050670de0b6b3a76400008202600260008282540192505081905550505050565b6000809054906101000a900473ffffffffffffffffffffffffffffffffffffffff1673ffffffffffffffffffffffffffffffffffffffff163373ffffffffffffffffffffffffffffffffffffffff16141515610f3757600080fd5b600073ffffffffffffffffffffffffffffffffffffffff168173ffffffffffffffffffffffffffffffffffffffff1614151515610f7357600080fd5b8073ffffffffffffffffffffffffffffffffffffffff166000809054906101000a900473ffffffffffffffffffffffffffffffffffffffff1673ffffffffffffffffffffffffffffffffffffffff167f8be0079c531659141344cd1fd0a4f28419497f9722a3daafe3b4186f6b6457e060405160405180910390a3806000806101000a81548173ffffffffffffffffffffffffffffffffffffffff021916908373ffffffffffffffffffffffffffffffffffffffff16021790555050565b6000611073600a6110656110528560400151426110db90919063ffffffff16565b85602001516110f490919063ffffffff16565b61112790919063ffffffff16565b9050816000015173ffffffffffffffffffffffffffffffffffffffff166108fc829081150290604051600060405180830381858888f1935050505015156110b957600080fd5b5050565b60008082840190508381101515156110d157fe5b8091505092915050565b60008282111515156110e957fe5b818303905092915050565b60008082840290506000841480611115575082848281151561111257fe5b04145b151561111d57fe5b8091505092915050565b600080828481151561113557fe5b04905080915050929150505600a165627a7a723058205d161bdbb27398e9bb14c915f90b2934514be50ac414bff2f6b37919a1c8aaf90029",
  "source": "pragma solidity ^0.4.14;\n// lesson 3\nimport './SafeMath.sol';\nimport './Ownable.sol';\n\ncontract Payroll is Ownable {\n    using SafeMath for uint;\n    struct Employee {\n        address id;\n        uint salary;\n        uint lastPayday;\n    }\n    uint constant payDuration = 10 seconds;\n    mapping(address => Employee) public employees;\n    uint totalSalary=0;\n    \n\n    modifier employeeExist (address employeeId) {\n      var employee = employees[employeeId];\n      assert(employee.id != 0x0);\n      _;\n    }\n    \n    function _partialPaid(Employee employee) private {\n        uint payment = employee.salary.mul(now.sub(employee.lastPayday)).div(payDuration);\n        employee.id.transfer(payment);\n    }\n    \n   \n    \n  function addEmployee(address employeeId, uint salary) onlyOwner {\n      var employee = employees[employeeId];\n      assert(employee.id == 0x0);\n      employees[employeeId] = Employee(employeeId, salary * 1 ether, now);\n      totalSalary += salary * 1 ether;\n\n  }\n\n  function removeEmployee(address employeeId) onlyOwner employeeExist(employeeId){\n        var employee = employees[employeeId];\n        _partialPaid(employee);\n        totalSalary = totalSalary.sub(employee.salary);\n        delete employees[employeeId];\n    }\n\n  function addFund() payable returns(uint){\n      return this.balance;  // `this` is an address type\n  }\n  function getBalance() returns(uint){\n        return this.balance;\n    }\n\n  function calculateRunway() returns(uint){\n    return this.balance / totalSalary;\n  }\n\n  function hasEnoughFund() returns(bool){\n    return calculateRunway() > 0;\n  }\n\n  function changePaymentAddress(address newAddress) employeeExist(msg.sender) {\n      var employee = employees[msg.sender];\n      employees[newAddress] = Employee(newAddress, employee.salary, employee.lastPayday);\n      delete employees[msg.sender];\n  }\n\n  function updateEmployee(address employeeId, uint salary) onlyOwner employeeExist(employeeId){\n      var employee = employees[employeeId];\n      assert(employee.id != 0x0);\n      \n      _partialPaid(employee);\n      employees[employeeId] = Employee(employeeId, salary, now);\n  }\n  \n  function getPaid() employeeExist(msg.sender){ \n    var employee = employees[msg.sender];\n    uint nextPayDay = employee.lastPayday.add(payDuration);\n    assert(nextPayDay < now);\n    employee.lastPayday = nextPayDay;\n    employee.id.transfer(employee.salary);\n  }\n}",
  "sourcePath": "/home/juicebox/payroll/contracts/Payroll.sol",
  "compiler": {
    "name": "solc",
    "version": "0.4.18+commit.9cf6e910.Emscripten.clang"
  },
  "schemaVersion": "1.0.1",
  "updatedAt": "2017-11-19T18:39:06.950Z"
}