{
  "contractName": "Payroll",
  "abi": [
    {
      "constant": false,
      "inputs": [],
      "name": "hasEnoughFund",
      "outputs": [
        {
          "name": "",
          "type": "bool"
        }
      ],
      "payable": false,
      "stateMutability": "nonpayable",
      "type": "function"
    },
    {
      "constant": false,
      "inputs": [],
      "name": "calculateRunway",
      "outputs": [
        {
          "name": "",
          "type": "uint256"
        }
      ],
      "payable": false,
      "stateMutability": "nonpayable",
      "type": "function"
    },
    {
      "constant": false,
      "inputs": [
        {
          "name": "employeeId",
          "type": "address"
        },
        {
          "name": "salary",
          "type": "uint256"
        }
      ],
      "name": "updateEmployee",
      "outputs": [],
      "payable": false,
      "stateMutability": "nonpayable",
      "type": "function"
    },
    {
      "constant": false,
      "inputs": [],
      "name": "checkInfo",
      "outputs": [
        {
          "name": "balance",
          "type": "uint256"
        },
        {
          "name": "runway",
          "type": "uint256"
        },
        {
          "name": "employeeCount",
          "type": "uint256"
        }
      ],
      "payable": false,
      "stateMutability": "nonpayable",
      "type": "function"
    },
    {
      "constant": true,
      "inputs": [],
      "name": "owner",
      "outputs": [
        {
          "name": "",
          "type": "address"
        }
      ],
      "payable": false,
      "stateMutability": "view",
      "type": "function"
    },
    {
      "constant": false,
      "inputs": [
        {
          "name": "index",
          "type": "uint256"
        }
      ],
      "name": "checkEmployee",
      "outputs": [
        {
          "name": "employeeId",
          "type": "address"
        },
        {
          "name": "salary",
          "type": "uint256"
        },
        {
          "name": "lastPayday",
          "type": "uint256"
        }
      ],
      "payable": false,
      "stateMutability": "nonpayable",
      "type": "function"
    },
    {
      "constant": false,
      "inputs": [],
      "name": "addFund",
      "outputs": [
        {
          "name": "",
          "type": "uint256"
        }
      ],
      "payable": true,
      "stateMutability": "payable",
      "type": "function"
    },
    {
      "constant": false,
      "inputs": [],
      "name": "getPaid",
      "outputs": [],
      "payable": false,
      "stateMutability": "nonpayable",
      "type": "function"
    },
    {
      "constant": true,
      "inputs": [
        {
          "name": "",
          "type": "address"
        }
      ],
      "name": "employees",
      "outputs": [
        {
          "name": "id",
          "type": "address"
        },
        {
          "name": "salary",
          "type": "uint256"
        },
        {
          "name": "lastPayday",
          "type": "uint256"
        }
      ],
      "payable": false,
      "stateMutability": "view",
      "type": "function"
    },
    {
      "constant": false,
      "inputs": [
        {
          "name": "employeeId",
          "type": "address"
        }
      ],
      "name": "removeEmployee",
      "outputs": [],
      "payable": false,
      "stateMutability": "nonpayable",
      "type": "function"
    },
    {
      "constant": false,
      "inputs": [
        {
          "name": "employeeId",
          "type": "address"
        },
        {
          "name": "salary",
          "type": "uint256"
        }
      ],
      "name": "addEmployee",
      "outputs": [],
      "payable": false,
      "stateMutability": "nonpayable",
      "type": "function"
    },
    {
      "constant": false,
      "inputs": [
        {
          "name": "newOwner",
          "type": "address"
        }
      ],
      "name": "transferOwnership",
      "outputs": [],
      "payable": false,
      "stateMutability": "nonpayable",
      "type": "function"
    },
    {
      "anonymous": false,
      "inputs": [
        {
          "indexed": true,
          "name": "previousOwner",
          "type": "address"
        },
        {
          "indexed": true,
          "name": "newOwner",
          "type": "address"
        }
      ],
      "name": "OwnershipTransferred",
      "type": "event"
    }
  ],
  "bytecode": "0x6060604052336000806101000a81548173ffffffffffffffffffffffffffffffffffffffff021916908373ffffffffffffffffffffffffffffffffffffffff160217905550611230806100536000396000f3006060604052600436106100ba576000357c0100000000000000000000000000000000000000000000000000000000900463ffffffff16806323fed09e146100bf5780634ec19512146100ec5780635e91d8ec1461011557806385a96258146101575780638da5cb5b1461018e57806396b02696146101e3578063a2f09dfa14610254578063cf41d6f814610272578063d067894714610287578063d108177a1461030e578063e7fd9a1314610347578063f2fde38b14610389575b600080fd5b34156100ca57600080fd5b6100d26103c2565b604051808215151515815260200191505060405180910390f35b34156100f757600080fd5b6100ff6103d3565b6040518082815260200191505060405180910390f35b341561012057600080fd5b610155600480803573ffffffffffffffffffffffffffffffffffffffff16906020019091908035906020019091905050610406565b005b341561016257600080fd5b61016a61061f565b60405180848152602001838152602001828152602001935050505060405180910390f35b341561019957600080fd5b6101a161065e565b604051808273ffffffffffffffffffffffffffffffffffffffff1673ffffffffffffffffffffffffffffffffffffffff16815260200191505060405180910390f35b34156101ee57600080fd5b6102046004808035906020019091905050610683565b604051808473ffffffffffffffffffffffffffffffffffffffff1673ffffffffffffffffffffffffffffffffffffffff168152602001838152602001828152602001935050505060405180910390f35b61025c61071d565b6040518082815260200191505060405180910390f35b341561027d57600080fd5b61028561073c565b005b341561029257600080fd5b6102be600480803573ffffffffffffffffffffffffffffffffffffffff169060200190919050506108a7565b604051808473ffffffffffffffffffffffffffffffffffffffff1673ffffffffffffffffffffffffffffffffffffffff168152602001838152602001828152602001935050505060405180910390f35b341561031957600080fd5b610345600480803573ffffffffffffffffffffffffffffffffffffffff169060200190919050506108f1565b005b341561035257600080fd5b610387600480803573ffffffffffffffffffffffffffffffffffffffff16906020019091908035906020019091905050610c9f565b005b341561039457600080fd5b6103c0600480803573ffffffffffffffffffffffffffffffffffffffff16906020019091905050610f4d565b005b6000806103cd6103d3565b11905090565b60006104016001543073ffffffffffffffffffffffffffffffffffffffff16316110a290919063ffffffff16565b905090565b60008060009054906101000a900473ffffffffffffffffffffffffffffffffffffffff1673ffffffffffffffffffffffffffffffffffffffff163373ffffffffffffffffffffffffffffffffffffffff1614151561046357600080fd5b826000600460008373ffffffffffffffffffffffffffffffffffffffff1673ffffffffffffffffffffffffffffffffffffffff168152602001908152602001600020905060008160000160009054906101000a900473ffffffffffffffffffffffffffffffffffffffff1673ffffffffffffffffffffffffffffffffffffffff16141515156104ee57fe5b600460008673ffffffffffffffffffffffffffffffffffffffff1673ffffffffffffffffffffffffffffffffffffffff16815260200190815260200160002092506105ae83606060405190810160405290816000820160009054906101000a900473ffffffffffffffffffffffffffffffffffffffff1673ffffffffffffffffffffffffffffffffffffffff1673ffffffffffffffffffffffffffffffffffffffff168152602001600182015481526020016002820154815250506110bd565b6105c7836001015460015461114990919063ffffffff16565b6001819055506105e8670de0b6b3a76400008561116290919063ffffffff16565b8360010181905550428360020181905550610612836001015460015461119590919063ffffffff16565b6001819055505050505050565b60008060003073ffffffffffffffffffffffffffffffffffffffff16319250600254905060006001541115610659576106566103d3565b91505b909192565b6000809054906101000a900473ffffffffffffffffffffffffffffffffffffffff1681565b60008060008060038581548110151561069857fe5b906000526020600020900160009054906101000a900473ffffffffffffffffffffffffffffffffffffffff169350600460008573ffffffffffffffffffffffffffffffffffffffff1673ffffffffffffffffffffffffffffffffffffffff16815260200190815260200160002090508060010154925080600201549150509193909250565b60003073ffffffffffffffffffffffffffffffffffffffff1631905090565b600080336000600460008373ffffffffffffffffffffffffffffffffffffffff1673ffffffffffffffffffffffffffffffffffffffff168152602001908152602001600020905060008160000160009054906101000a900473ffffffffffffffffffffffffffffffffffffffff1673ffffffffffffffffffffffffffffffffffffffff16141515156107ca57fe5b600460003373ffffffffffffffffffffffffffffffffffffffff1673ffffffffffffffffffffffffffffffffffffffff1681526020019081526020016000209350610823600a856002015461119590919063ffffffff16565b9250428310151561083057fe5b8284600201819055508360000160009054906101000a900473ffffffffffffffffffffffffffffffffffffffff1673ffffffffffffffffffffffffffffffffffffffff166108fc85600101549081150290604051600060405180830381858888f1935050505015156108a157600080fd5b50505050565b60046020528060005260406000206000915090508060000160009054906101000a900473ffffffffffffffffffffffffffffffffffffffff16908060010154908060020154905083565b6000806000809054906101000a900473ffffffffffffffffffffffffffffffffffffffff1673ffffffffffffffffffffffffffffffffffffffff163373ffffffffffffffffffffffffffffffffffffffff1614151561094f57600080fd5b826000600460008373ffffffffffffffffffffffffffffffffffffffff1673ffffffffffffffffffffffffffffffffffffffff168152602001908152602001600020905060008160000160009054906101000a900473ffffffffffffffffffffffffffffffffffffffff1673ffffffffffffffffffffffffffffffffffffffff16141515156109da57fe5b600460008673ffffffffffffffffffffffffffffffffffffffff1673ffffffffffffffffffffffffffffffffffffffff1681526020019081526020016000209350610a9a84606060405190810160405290816000820160009054906101000a900473ffffffffffffffffffffffffffffffffffffffff1673ffffffffffffffffffffffffffffffffffffffff1673ffffffffffffffffffffffffffffffffffffffff168152602001600182015481526020016002820154815250506110bd565b610ab3846001015460015461114990919063ffffffff16565b600181905550600460008673ffffffffffffffffffffffffffffffffffffffff1673ffffffffffffffffffffffffffffffffffffffff168152602001908152602001600020600080820160006101000a81549073ffffffffffffffffffffffffffffffffffffffff0219169055600182016000905560028201600090555050600092505b600254831015610c98578473ffffffffffffffffffffffffffffffffffffffff16600384815481101515610b6757fe5b906000526020600020900160009054906101000a900473ffffffffffffffffffffffffffffffffffffffff1673ffffffffffffffffffffffffffffffffffffffff161415610c6f576003600160025403815481101515610bc357fe5b906000526020600020900160009054906101000a900473ffffffffffffffffffffffffffffffffffffffff1673ffffffffffffffffffffffffffffffffffffffff16600384815481101515610c1457fe5b906000526020600020900160009054906101000a905050506003600160025403815481101515610c4057fe5b906000526020600020900160006101000a81549073ffffffffffffffffffffffffffffffffffffffff02191690555b610c85600160025461114990919063ffffffff16565b6002819055508280600101935050610b37565b5050505050565b60008060009054906101000a900473ffffffffffffffffffffffffffffffffffffffff1673ffffffffffffffffffffffffffffffffffffffff163373ffffffffffffffffffffffffffffffffffffffff16141515610cfc57600080fd5b600460008473ffffffffffffffffffffffffffffffffffffffff1673ffffffffffffffffffffffffffffffffffffffff168152602001908152602001600020905060008160000160009054906101000a900473ffffffffffffffffffffffffffffffffffffffff1673ffffffffffffffffffffffffffffffffffffffff16141515610d8357fe5b6060604051908101604052808473ffffffffffffffffffffffffffffffffffffffff168152602001610dc6670de0b6b3a76400008561116290919063ffffffff16565b815260200142815250600460008573ffffffffffffffffffffffffffffffffffffffff1673ffffffffffffffffffffffffffffffffffffffff16815260200190815260200160002060008201518160000160006101000a81548173ffffffffffffffffffffffffffffffffffffffff021916908373ffffffffffffffffffffffffffffffffffffffff1602179055506020820151816001015560408201518160020155905050610ec3600460008573ffffffffffffffffffffffffffffffffffffffff1673ffffffffffffffffffffffffffffffffffffffff1681526020019081526020016000206001015460015461119590919063ffffffff16565b600181905550610edf600160025461119590919063ffffffff16565b60028190555060038054806001018281610ef991906111b3565b9160005260206000209001600085909190916101000a81548173ffffffffffffffffffffffffffffffffffffffff021916908373ffffffffffffffffffffffffffffffffffffffff16021790555050505050565b6000809054906101000a900473ffffffffffffffffffffffffffffffffffffffff1673ffffffffffffffffffffffffffffffffffffffff163373ffffffffffffffffffffffffffffffffffffffff16141515610fa857600080fd5b600073ffffffffffffffffffffffffffffffffffffffff168173ffffffffffffffffffffffffffffffffffffffff1614151515610fe457600080fd5b8073ffffffffffffffffffffffffffffffffffffffff166000809054906101000a900473ffffffffffffffffffffffffffffffffffffffff1673ffffffffffffffffffffffffffffffffffffffff167f8be0079c531659141344cd1fd0a4f28419497f9722a3daafe3b4186f6b6457e060405160405180910390a3806000806101000a81548173ffffffffffffffffffffffffffffffffffffffff021916908373ffffffffffffffffffffffffffffffffffffffff16021790555050565b60008082848115156110b057fe5b0490508091505092915050565b60006110ff600a6110f16110de85604001514261114990919063ffffffff16565b856020015161116290919063ffffffff16565b6110a290919063ffffffff16565b9050816000015173ffffffffffffffffffffffffffffffffffffffff166108fc829081150290604051600060405180830381858888f19350505050151561114557600080fd5b5050565b600082821115151561115757fe5b818303905092915050565b60008082840290506000841480611183575082848281151561118057fe5b04145b151561118b57fe5b8091505092915050565b60008082840190508381101515156111a957fe5b8091505092915050565b8154818355818115116111da578183600052602060002091820191016111d991906111df565b5b505050565b61120191905b808211156111fd5760008160009055506001016111e5565b5090565b905600a165627a7a72305820549c1f4434991fb5f2dd98b82a55086a7467de1d6234ba18a8d5584e2e1983540029",
  "source": "pragma solidity ^0.4.13;\n\nimport './SafeMath.sol';\nimport './Ownable.sol';\n\ncontract Payroll is Ownable {\n    using SafeMath for uint;\n    struct Employee {\n        address id;\n        uint salary;\n        uint lastPayday;\n    }\n\n    uint constant payDuration = 10 seconds;\n\n    uint totalSalary;\n    uint totalEmployee;\n    address[] employeeList;\n    mapping(address => Employee) public employees;\n\n    modifier employeeExit(address employeeId) {\n        var employee = employees[employeeId];\n        assert(employee.id != 0x0);\n        _;\n    }\n\n    function _partialPaid(Employee employee) private {\n        uint payment = employee.salary\n            .mul(now.sub(employee.lastPayday))\n            .div(payDuration);\n        employee.id.transfer(payment);\n    }\n\n    function checkEmployee(uint index) returns (address employeeId, uint salary, uint lastPayday) {\n        employeeId = employeeList[index];\n        var employee = employees[employeeId];\n        salary = employee.salary;\n        lastPayday = employee.lastPayday;\n    }\n\n    function addEmployee(address employeeId, uint salary) onlyOwner {\n        var employee = employees[employeeId];\n        assert(employee.id == 0x0);\n\n        employees[employeeId] = Employee(employeeId, salary.mul(1 ether), now);\n        totalSalary = totalSalary.add(employees[employeeId].salary);\n        totalEmployee = totalEmployee.add(1);\n        employeeList.push(employeeId);\n        \n    }\n\n    function removeEmployee(address employeeId) onlyOwner employeeExit(employeeId) {\n        var employee = employees[employeeId];\n\n        _partialPaid(employee);\n        totalSalary = totalSalary.sub(employee.salary);        \n        delete employees[employeeId];\n        // update EployeeList array by switching the delete element and the last element \n        // and remove the last element;\n        for (uint i = 0; i<totalEmployee; i++) {\n            if (employeeList[i] == employeeId) {\n                employeeList[i] == employeeList[totalEmployee-1];\n                delete employeeList[totalEmployee - 1];\n            }\n        totalEmployee = totalEmployee.sub(1);\n        \n        }\n    }\n\n    function updateEmployee(address employeeId, uint salary) onlyOwner employeeExit(employeeId) {\n        var employee = employees[employeeId];\n\n        _partialPaid(employee);\n        totalSalary = totalSalary.sub(employee.salary);\n        employee.salary = salary.mul(1 ether);\n        employee.lastPayday = now;\n        totalSalary = totalSalary.add(employee.salary);\n    }\n\n    function addFund() payable returns (uint) {\n        return this.balance;\n    }\n\n    function calculateRunway() returns (uint) {\n        return this.balance.div(totalSalary);\n    }\n\n    function hasEnoughFund() returns (bool) {\n        return calculateRunway() > 0;\n    }\n\n    function getPaid() employeeExit(msg.sender) {\n        var employee = employees[msg.sender];\n\n        uint nextPayday = employee.lastPayday.add(payDuration);\n        assert(nextPayday < now);\n\n        employee.lastPayday = nextPayday;\n        employee.id.transfer(employee.salary);\n    }\n\n    function checkInfo() returns (uint balance, uint runway, uint employeeCount) {\n        balance = this.balance;\n        employeeCount = totalEmployee;\n        if(totalSalary >0) {\n            runway = calculateRunway();\n        }\n        \n    }\n}",
  "sourcePath": "/Users/jeffsang/Projects/Payroll-Ether/contracts/Payroll.sol",
  "compiler": {
    "name": "solc",
    "version": "0.4.18+commit.9cf6e910.Emscripten.clang"
  },
  "schemaVersion": "1.0.1",
  "updatedAt": "2017-11-22T05:34:19.817Z"
}